:100000009DC30000CCC30000CAC30000C8C30000E9
:10001000C6C30000C4C30000C2C30000C0C30000C8
:10002000BEC30000BCC30000BAC30000B8C30000D8
:10003000B6C30000B4C30000B2C30000B0C30000E8
:10004000AEC300000C94430CAAC30000A8C3000078
:10005000A6C30000A4C30000A2C300000C940B13AD
:100060009EC300000C948C090C94630998C3000093
:1000700096C3000094C3000092C3000090C3000028
:100080008EC300008CC300008AC3000088C3000038
:1000900086C3000084C3000082C300000C949D0A44
:1000A0007EC300007CC300007AC3000078C3000058
:1000B00076C3000074C3000072C3000070C3000068
:1000C0006EC300006CC300006AC3000068C3000078
:1000D00066C3000064C3000062C3000060C3000088
:1000E0005EC30000971C7E1B7E1B7E1B7E1B7E1B3F
:1000F000AC1CC71CD01CE11C041D151D381D060CB2
:10010000D80BDA0BDF0BE60BEC0BF00BF40BF80B58
:10011000000C040E070EF60DFA0DFE0D3E0E0B0E32
:100120000F0E150E190E1D0E230E270E2B0E3E0E52
:10013000310E350E390E00000000003E5B4F5B3E75
:100140003E6B4F6B3E1C3E7C3E1C183C7E3C181C9C
:10015000577D571C1C5E7F5E1C00183C1800FFE793
:10016000C3E7FF0018241800FFE7DBE7FF30483A39
:10017000060E2629792926407F050507407F05259B
:100180003F5A3CE73C5A7F3E1C1C08081C1C3E7F23
:1001900014227F22145F5F005F5F06097F017F00EA
:1001A0006689956A606060606094A2FFA29408040A
:1001B0007E040810207E201008082A1C08081C2A2B
:1001C00008081E101010100C1E0C1E0C30383E3883
:1001D00030060E3E0E06000000000000005F00002A
:1001E0000007000700147F147F14242A7F2A12239B
:1001F0001308646236495620500008070300001CAB
:100200002241000041221C002A1C7F1C2A08083EB3
:1002100008080080703000080808080800006060C6
:100220000020100804023E5149453E00427F400034
:1002300072494949462141494D331814127F10270C
:10024000454545393C4A494931412111090736495B
:10025000494936464949291E00001400000040342F
:100260000000000814224114141414140041221434
:100270000802015909063E415D594E7C1211127C5B
:100280007F494949363E414141227F4141413E7FBC
:10029000494949417F090909013E414151737F089C
:1002A00008087F00417F41002040413F017F081442
:1002B00022417F404040407F021C027F7F040810A3
:1002C0007F3E4141413E7F090909063E4151215E81
:1002D0007F09192946264949493203017F01033F15
:1002E0004040403F1F2040201F3F4038403F6314A4
:1002F00008146303047804036159494D43007F41A6
:1003000041410204081020004141417F04020102E2
:100310000440404040400003070800205454784007
:100320007F284444383844444428384444287F389B
:100330005454541800087E090218A4A49C787F081D
:1003400004047800447D40002040403D007F102898
:10035000440000417F40007C047804787C08040459
:10036000783844444438FC1824241818242418FCF1
:100370007C08040408485454542404043F44243C96
:100380004040207C1C2040201C3C4030403C442805
:100390001028444C9090907C4464544C440008369F
:1003A000410000007700000041360800020102040D
:1003B000023C2623263C1EA1A161123A4040207A2D
:1003C0003854545559215555794122545478422175
:1003D0005554784020545579400C1E5272123955AC
:1003E00055555939545454593955545458000045A9
:1003F0007C410002457D420001457C407D12111286
:100400007DF0282528F07C545545002054547C5418
:100410007C0A097F4932494949323A4444443A32D4
:100420004A4848303A4141217A3A42402078009D7A
:10043000A0A07D3D4242423D3D4040403D3C24FF26
:100440002424487E4943662B2FFC2F2BFF0929F6D5
:1004500020C0887E090320545479410000447D4126
:100460003048484A32384040227A007A0A0A727D7F
:100470000D19317D2629292F28262929292630489A
:100480004D4020380808080808080808382F10C808
:10049000ACBA2F102834FA00007B000008142A148C
:1004A0002222142A1408AA005500AAAA55AA55AA5D
:1004B000000000FF00101010FF00141414FF0010C3
:1004C00010FF00FF1010F010F0141414FC001414AE
:1004D000F700FF0000FF00FF1414F404FC141417CD
:1004E000101F10101F101F1414141F00101010F0F4
:1004F000000000001F101010101F10101010F0103E
:10050000000000FF101010101010101010FF10004D
:100510000000FF140000FF00FF00001F1017000084
:10052000FC04F414141710171414F404F40000FF5E
:1005300000F714141414141414F700F714141417F7
:100540001410101F101F141414F4141010F010F0D5
:1005500000001F101F0000001F14000000FC14000A
:1005600000F010F01010FF10FF141414FF141010FE
:10057000101F00000000F010FFFFFFFFFFF0F0F081
:10058000F0F0FFFFFF0000000000FFFF0F0F0F0F54
:100590000F3844443844FC4A4A4A347E0202060674
:1005A000027E027E0263554941633844443C044064
:1005B0007E201E2006027E020299A5E7A5991C2A2C
:1005C000492A1C4C7201724C304A4D4D30304878EB
:1005D0004830BC625A463D3E494949007E0101010E
:1005E0007E2A2A2A2A2A44445F444440514A4440ED
:1005F00040444A51400000FF0103E080FF00000832
:10060000086B6B083612362436060F090F060000F9
:1006100018180000001010003040FF0101001F01F9
:10062000011E00191D1712003C3C3C3C000000005C
:100630000000000A0B02090C0D0E0807030401005C
:1006400000000000000000000000000000000000AA
:100650000000000000000000000000000012111067
:10066000000000000000000000000000000000008A
:100670000000000000000000002200250028002BE0
:10068000002E003100340002010000050108010BBA
:100690000100002100240027002A002D0030003333
:1006A0000001010000040107010A01050505050715
:1006B0000508080808020202020A0A0808040404DD
:1006C0000401010101010101010303030303030309
:1006D00003040707070C0C0C0C0C0C0C0C02020298
:1006E0000206060606060606060B0B0B0B0B0B0B8B
:1006F0000B0102102020080810204010204080022A
:100700000102010804020101020408102040808057
:1007100040201008040201800402018040201008DB
:1007200004020108040201010204081020408001B3
:100730000204081020408000A81DA31D11241FBE24
:10074000CFEFD1E2DEBFCDBF00E00CBF27E0A6EDCA
:10075000B4E001C01D92A23FB207E1F714E0A0E0AF
:10076000B2E0E0E6FBE400E00BBF02C007900D92B0
:10077000A63DB107D9F713E0CDE9D3E000E006C00C
:1007800021970109802FFE010E949C20CC39D107BE
:1007900080E00807A9F70E9455130C949F2530CCE0
:1007A000CF92DF92EF92FF920F931F93CF93DF933D
:1007B0006C017A018B01C0E0D0E0CE15DF0581F03D
:1007C000D8016D918D01D601ED91FC910190F081E0
:1007D000E02DC6011995892B11F02196EECF7E01EF
:1007E000C701DF91CF911F910F91FF90EF90DF90A4
:1007F000CF900895FC01538D448D252F30E0842F38
:1008000090E0821B930B541710F0CF960895019738
:100810000895FC01918D828D981761F0828DDF0122
:10082000A80FB11D5D968C91928D9F5F9F73928FE3
:1008300090E008958FEF9FEF0895FC01918D828DD8
:10084000981731F0828DE80FF11D858D90E00895A5
:100850008FEF9FEF0895FC01918D228D892F90E0FD
:10086000805C9F4F821B91098F739927089589E1BE
:1008700097E0F1DF21E0892B09F420E0822F089531
:10088000FC01848DDF01A80FB11DA35ABF4F2C912D
:10089000848D90E001968F739927848FA689B789FC
:1008A0002C93A089B1898C91837080648C93938DF3
:1008B000848D981306C00288F389E02D80818F7D96
:1008C00080830895EF92FF920F931F93CF93DF934E
:1008D000EC0181E0888F9B8D8C8D981305C0E88991
:1008E000F989808185FD25C0F62E0B8D10E00F5F04
:1008F0001F4F0F731127E02E8C8DE8120BC00FB61F
:1009000007FCFACFE889F989808185FFF5CFCE0110
:10091000B7DFF2CF8B8DFE01E80FF11DE35AFF4FD9
:10092000F0829FB7F8940B8FEA89FB8980818062FF
:100930000AC09FB7F894EE89FF896083E889F98936
:1009400080818370806480839FBF81E090E0DF912D
:10095000CF911F910F91FF90EF900895CF93DF9368
:10096000EC01888D8823C1F0EA89FB89808185FDAF
:1009700005C0A889B9898C9186FD0EC00FB607FC09
:10098000F5CF808185FFF2CFA889B9898C9185FF49
:10099000EDCFCE0175DFE8CFDF91CF91089580E0F4
:1009A00090E0892B19F063DF811125C080E090E091
:1009B000892B41F080E090E0892B21F00E9400001B
:1009C00081111CC080E090E0892B41F080E090E034
:1009D000892B21F00E940000811113C080E090E07B
:1009E000892BA1F080E090E0892B81F00E9400002B
:1009F00081110AC008950E940000D8CF0E94000013
:100A0000E1CF0E940000EACF0C9400000895089501
:100A10002F923F924F925F926F927F928F929F920E
:100A2000AF92BF92CF92DF92EF92FF920F931F93FC
:100A3000CF93DF93CDB7DEB72D970FB6F894DEBF17
:100A40000FBECDBF9D838C836A30A1F4DC01549628
:100A50002C9154971E968D919C911F97B8E02B9FD7
:100A6000800D911D1124EC81FD8197878687158665
:100A70001486F1C06D3009F4EEC02C813D813D87B4
:100A80002C87D9011C96CD90DC901D9718968D91DE
:100A90009C911997C816D906BCF0EC85FD85448950
:100AA000242F30E084859585F6E04F9F800D911DC1
:100AB0001124AC85BD851D969C938E931C975696EC
:100AC0004C914111A4C0C7C0EC85FD8586849784F4
:100AD000828593858816990604F7F489F983AF2EE9
:100AE000B12CC60126E0F29F800D911D112418162D
:100AF00019069CF6C50123E0880F991F2A95E1F796
:100B0000880D991D1816190644F6AC85BD855296B8
:100B10000D90BC91A02DBD83AC83EC85FD85008834
:100B2000F189E02DFF83EE83F5E06F9FB001112482
:100B300016011A829B012C193D0939872887C401A7
:100B400008969B878A879A81953049F0E885F985D0
:100B5000E20DF31DEA5CFE4FA491AB8301C01B8242
:100B600024013401BB81B0FF13C0AC85BD85ED917C
:100B7000FC91B981B13031F40084F185E02D2E81F2
:100B80003F8119C00288F389E02DEE80FF801EC0EE
:100B9000EC81FD812E813F81E217F307F1F0AC85F6
:100BA000BD85ED91FC91B981B13059F40084F18596
:100BB000E02D2C813D81A301B1018C859D85199586
:100BC0000CC00288F389E02DEC80FD808501950141
:100BD000A201B6018C859D851995EB81E695EB8385
:100BE000FFEF6F1A7F0A4A0C5B1C2A853B8526158E
:100BF000370509F0B7CF3A813F5F3A835FEF251A97
:100C0000350ACA0CDB1C363009F09DCF46CF4AEFBF
:100C10004203B001439F700D1124AC85BD85189629
:100C20004D915C911997460F571F481759079CF42F
:100C300083E0220F331F8A95E1F71E968D919C91D8
:100C40001F97280F391F1F963C932E931E971D96B2
:100C50001C921E921C9781E090E02D960FB6F8949E
:100C6000DEBF0FBECDBFDF91CF911F910F91FF90DF
:100C7000EF90DF90CF90BF90AF909F908F907F903C
:100C80006F905F904F903F902F900895EF92FF925A
:100C90000F931F93DC011A960D911C911B971896C8
:100CA0002D913C911997ED91FC910288F389E02DEB
:100CB0007B0140E050E060E070E019951F910F91DA
:100CC000FF90EF9008956F927F928F929F92AF92D4
:100CD000BF92CF92DF92EF92FF920F931F93CF9329
:100CE000DF936C015A014801EB013B01620E731E58
:100CF000C615D70574F4D601ED91FC910484F585F1
:100D0000E02D87019401A501BE01C6011995219628
:100D1000EFCFDF91CF911F910F91FF90EF90DF9078
:100D2000CF90BF90AF909F908F907F906F900895DD
:100D3000EF92FF920F931F93260F371F2150310917
:100D4000DC01ED91FC910284F385E02D78018A01AC
:100D500019951F910F91FF90EF900895EF92FF92D8
:100D60000F931F93240F351F21503109DC01ED91A2
:100D7000FC910284F385E02D780189019B0119958E
:100D80001F910F91FF90EF9008956F927F928F9235
:100D90009F92AF92BF92CF92DF92EF92FF920F930A
:100DA0001F93CF93DF93EC014B015A016901380186
:100DB000E881F9810684F785E02D87011995A50161
:100DC000460D571D41505109E881F9810684F78588
:100DD000E02D9601B401CE011995E881F9810484D2
:100DE000F585E02D9301A501B401CE011995C80C3C
:100DF000D91CB60161507109E881F9810484F58537
:100E0000E02D9301A501CE011995DF91CF911F919E
:100E10000F91FF90EF90DF90CF90BF90AF909F9099
:100E20008F907F906F9008952F923F924F925F9294
:100E30006F927F928F929F92AF92BF92CF92DF92EA
:100E4000EF92FF920F931F93CF93DF9300D000D0C8
:100E5000CDB7DEB72C017E836D836A015901C801CD
:100E6000FC82EB824801841A950A97FE03C0919494
:100E70008194910835012D813E81621A730A77FEB3
:100E800003C0719461947108681479045CF43A2D7C
:100E90002B2D5C01832F922F3D812E81DE82CD820E
:100EA000C32ED22EAD81BE81AA16BB065CF43C2DAA
:100EB0002D2D6C01832F922F3D812E81BE82AD821C
:100EC000A32EB22E85012D813E81021B130B1C0126
:100ED0002C183D0837FE03C0319421943108780165
:100EE00017FF03C03FEFE31AF30AF594E794C8161F
:100EF000D9062CF08FEF9FEF9A83898304C0A1E07D
:100F0000B0E0BA83A9832D813E81A216B30624F1F5
:100F1000D201ED91FC910084F185E02D2B813C8183
:100F20006814790424F44D815E81B60103C0A601E2
:100F30006D817E81C2011995E218F308F7FE06C0A3
:100F400029813A81C20ED31EE00EF11E8D819E8151
:100F500001969E838D83D7CF26960FB6F894DEBF79
:100F60000FBECDBFDF91CF911F910F91FF90EF90FA
:100F7000DF90CF90BF90AF909F908F907F906F90B9
:100F80005F904F903F902F900895EF92FF920F93B4
:100F90001F93260F371FDC01ED91FC910284F3852E
:100FA000E02D78018A0119951F910F91FF90EF9024
:100FB0000895EF92FF920F931F93240F351FDC01CA
:100FC000ED91FC910284F385E02D780189019B016C
:100FD00019951F910F91FF90EF90089585ED8093E3
:100FE000BC008091BC0084FDFCCF1092F4060895F3
:100FF00040917A06262F30E0240F311D2132310531
:10100000DCF42091F4062430C9F4FC0180E090E087
:10101000861758F430917A062191DC01A65AB94F0F
:10102000A30FB11D2C930196F3CF80917A06680F20
:1010300060937A0680E0089581E0089582E0089543
:10104000089508950895E091DB048091DA04E8178B
:1010500030F4F0E0E255F94F808190E008958FEF91
:101060009FEF08959091DB048091DA04981750F473
:10107000E92FF0E0E255F94F208130E09F5F909337
:10108000DB0402C02FEF3FEFC90108958091DA041D
:1010900090E02091DB04821B91090895CF92DF92AA
:1010A000EF92FF920F931F93CF93DF937C01CB01BD
:1010B0008A012091F506222389F0EB016B01C40E11
:1010C000D51ECC15DD0561F06991D701ED91FC913C
:1010D0000190F081E02DC7011995F3CF642F88DFCF
:1010E000C801DF91CF911F910F91FF90EF90DF909A
:1010F000CF900895CF93DF931F92CDB7DEB769836A
:101100002091F5062223D1F020911807203240F0DB
:1011100021E030E0FC013383228380E090E014C0C2
:101120008091F606E82FF0E0E950F94F998190831D
:101130008F5F8093F6068093180704C061E0CE01AC
:10114000019656DF81E090E00F90DF91CF910895F6
:10115000089580E090E008950E94A522CF92EF923A
:10116000FF920F931F93FC01038D148D0150110901
:10117000218D328D21503109CC24C3947B0140E074
:1011800050E060E070E012D71F910F91FF90EF9058
:10119000CF900895CF92EF92FF920F931F93040F79
:1011A000151F260F371FCC24C39400D71F910F9112
:1011B000FF90EF90CF900895CF92EF92FF920F9310
:1011C0001F93040F151F260F371FC12CEFD61F9139
:1011D0000F91FF90EF90CF9008958F929F92AF92D2
:1011E000BF92CF92DF92EF92FF920F931F93CF9314
:1011F000DF93EC014B015A01690161E966D5682D65
:10120000CE0151D562E9CE0160D5692DCE014BD515
:1012100063E9CE015AD56A2DCE0145D564E9CE01E8
:1012200054D56B2DCE013FD565E9CE014ED56C2D41
:10123000CE0139D566E9CE0148D56D2DCE0133D525
:1012400067E9CE0142D5602FCE012DD568E9CE01E8
:101250003CD5612FCE0127D563E6CE0136D56F2D63
:10126000669566956695CE011ED564E6CE012DD5B0
:10127000B701607E777085E0769567958A95E1F78E
:10128000CE0111D565E6CE0120D56E2D6F71CE0150
:101290000AD560E9CE0119D560E8CE0104D560E930
:1012A000CE0113D5CE0162D587FDF9CFDF91CF9165
:1012B0001F910F91FF90EF90DF90CF90BF90AF9074
:1012C0009F908F9008951F920F920FB60F92112446
:1012D0000BB60F922F933F934F935F936F937F9330
:1012E0008F939F93AF93BF93EF93FF9389E197E021
:1012F000C7DAFF91EF91BF91AF919F918F917F914D
:101300006F915F914F913F912F910F900BBE0F9076
:101310000FBE0F901F9018951F920F920FB60F924D
:1013200011240BB60F922F938F939F93EF93FF93FC
:10133000E0912907F0912A078081E0912F07F09131
:10134000300782FD12C09081809132078F5F8F73CA
:1013500020913307821751F0E0913207F0E0E75E09
:10136000F84F958F8093320701C08081FF91EF91F4
:101370009F918F912F910F900BBE0F900FBE0F90EA
:101380001F901895CF93CFB7F89480919D06811147
:1013900020C0E0EEF6E08491E6E2F7E09491E82FD9
:1013A000F0E0EE0FFF1FEF56F94FA591B491EC91CD
:1013B000E92319F461E085E3F8D385E3E2D68CB53F
:1013C00080618CBD8CB580648CBD84E3DAD683E308
:1013D000D8D680919D068F5F80939D06CFBFCF9119
:1013E00008951F93CF93DF93182F81E08093F50624
:1013F000109317071092F6061092180760E086EB1C
:1014000097E078DEDDD662E0812F36D71092DB04DC
:101410008093DA0486EB97E025DE182F86EB97E0C1
:1014200021DED12F20E0C22F9E01282BC901DF91A0
:10143000CF911F910895EF92FF920F931F93CF9337
:10144000DF937C018B01EA01209739F4EB010990CD
:101450000020E9F72197C61BD70B62E0C70135D4FE
:10146000C00FD11F0C171D0779F0F80161918F0192
:10147000C70119D4F701858D8230A0F361E070E0D7
:1014800080E090E012D6EECFDF91CF911F910F91C7
:10149000FF90EF900895CF93DF93EA01CCDFCE0168
:1014A000DF91CF910895CF93DF931F92CDB7DEB731
:1014B000698341E050E0BE016F5F7F4FBCDF81E098
:1014C00090E00F90DF91CF9108958EBD00000DB494
:1014D00007FEFDCF8EB50895DF92EF92FF920F9336
:1014E0001F93CF93DF93EC01D72E7A01122F032F96
:1014F000462F66E42FD44D2D67E4CE012BD44E2D1C
:1015000068E4CE0127D44F2D69E4CE0123D462E0F4
:10151000CE01DBD360E08F8948D380E0D6DF802F17
:10152000D4DF812FD2DF61E08F89DF91CF911F91CE
:101530000F91FF90EF90DF9038C31F920F920FB67C
:101540000F9211240BB60F922F933F934F935F93FB
:101550006F937F938F939F93AF93BF93EF93FF937B
:101560008091B900887F803609F49CC068F5883284
:1015700009F45BC090F4803109F454C038F4882336
:1015800009F4F6C0883009F44DC0F5C0883109F47B
:101590004CC0803209F45DC0EEC0803409F468C0EC
:1015A00048F4803309F455C0883309F0E4C08093CF
:1015B000F206D8C0803509F44FC0883509F45DC003
:1015C000883409F0D8C0D6C0883909F4C7C0A8F457
:1015D000883709F467C038F4883609F463C0803767
:1015E00009F460C0C8C0883809F4B8C0803909F46B
:1015F0005FC0803809F0BFC05BC0803B09F486C083
:1016000038F4803A09F466C0883A09F47FC0B3C060
:10161000803C09F4A7C0883C09F4A4C0883B09F4C5
:101620008AC0A9C08091CF0610C09091F106809128
:10163000F006981770F5E091F10681E08E0F809327
:10164000F106F0E0E053F94F80818093BB0085EC18
:1016500086C08093F2068EC0E091F10681E08E0F85
:101660008093F1068091BB00F0E0E053F94F808356
:101670009091F1068091F0066EC0E091F10681E054
:101680008E0F8093F1068091BB00F0E0E053F94F9C
:1016900080838091F30681116DC081E08093CE0636
:1016A00084EA61C083E08093F40610929C06CFCF59
:1016B00080919C06803208F051C0E0919C0681E048
:1016C0008E0F80939C068091BB00F0E0E458F94FA8
:1016D0008083BDCF85EC8093BC001092F40680918E
:1016E0009C06803230F4E0919C06F0E0E458F94F1B
:1016F000108260919C0670E0E091D604F091D704CE
:101700008CE796E0199510929C0635C084E0809392
:10171000F40610927B0610927A06E091D804F091BC
:10172000D904199580917A06811105C081E08093D2
:101730007A0610925A06E0917B0681E08E0F809324
:101740007B06F0E0E65AF94F80818093BB009091D0
:101750007B0680917A06981708F479CF85E8809304
:10176000BC0009C085EC8093BC001092F40603C055
:101770001092F20633DCFF91EF91BF91AF919F91F0
:101780008F917F916F915F914F913F912F910F902A
:101790000BBE0F900FBE0F901F9018958A309105C9
:1017A000A8F5FC018827E158FF4F8F4F0C949C202F
:1017B0008FEF1BC08EEE8093F30492E804C08FEF8E
:1017C0008093F3049CEC9093F20417C01092F304FE
:1017D0001092F2048FEF11C01092F3048FEF13C038
:1017E0001092F3048FEF07C080E88093F30410C0D9
:1017F0008FEF8093F3048093F2048093F4040895B0
:101800008FEF8093F3048093F20404C01092F304EA
:101810001092F2041092F4040895CF93DF93C2EC77
:10182000D7E083EC90E59C838B8363EC70E5888143
:101830008FD165E070E080E090E037D48881D1DD21
:101840000A8002C0969587950A94E2F7BC0180E071
:1018500090E00E94901E26EA3BE944E459E30E948E
:10186000CD1E2BE037ED43EA5CE30E94E61F20E04B
:1018700030E040E251E40E94821F0E944E20862FF9
:10188000DF91CF9108951F920F920FB60F921124FE
:101890008F939F9378948091DB059091F40489173E
:1018A00010F4129A01C012989091F304891710F461
:1018B000119A01C011989091F204891710F4109AAE
:1018C00001C010988F5F8093DB059F918F910F90DF
:1018D0000FBE0F901F9018953FB7F8948091A20605
:1018E0009091A306A091A406B091A50626B5A89B49
:1018F00005C02F3F19F00196A11DB11D3FBFBA2FA2
:10190000A92F982F8827820F911DA11DB11DBC0101
:10191000CD0142E0660F771F881F991F4A95D1F7C6
:101920000895CF92DF92EF92FF92CF93DF93D82F5B
:101930006A017B0186E394E005D680E8E3D5C82FF1
:10194000882319F086E592E031C0D230C9F048F41E
:10195000DD2389F0D13019F5A701960160E084E01C
:101960001DC0D430B9F088F0D530C9F4A701960174
:1019700060E088E113C0A701960160E080E00EC03E
:10198000A701960160E088E009C0A701960160E028
:1019900080E104C0A701960160E084E100D680E008
:1019A000B1D5C82F882329F08EE494E0CBD58C2FB5
:1019B00004C08AE794E0C6D580E0DF91CF91FF9024
:1019C000EF90DF90CF900895CF92DF92EF92FF9249
:1019D000CF93DF93D82F6A017B0181E994E0B2D5E0
:1019E00080E890D5C82F882319F086E592E015C0CD
:1019F000D11105C0A701960160E080E206C0D13098
:101A000029F4A701960160E084E2C9D580E07AD587
:101A1000C82F882329F087EA94E094D58C2F04C03E
:101A200080EC94E08FD580E0DF91CF91FF90EF9034
:101A3000DF90CF9008956F927F928F92AF92BF9276
:101A4000CF92DF92EF92FF921F93CF93DF9300D05C
:101A5000CDB7DEB7E12CF12C609006027090070242
:101A6000809008025E0184E0A80EB11C69827A822F
:101A70008B82FE0131966F01F60111916F01812F6A
:101A80003DD4982F987083FD02C01F5F05C0CA1413
:101A9000DB0491F710E092E0FFEFEF1AFF0A9230BB
:101AA00029F482E3E816F10409F73FC092E3E9164E
:101AB000F10409F43AC04091D20763ED77E085E084
:101AC000810F44D58091DB07813029F48091D207C2
:101AD00080648093D2076091D20784E0810FF7D4AD
:101AE0002091CE073091CF074091D0075091D10778
:101AF0006091CD07812F53D548E068E08FEF810FCB
:101B000093D4E12CF12CEFEFEE1AFE0A812FF6D3DD
:101B100083FF05C0F2E3EF16F104A9F708C082E3E2
:101B2000E816F10421F080E003C086E001C087E000
:101B30000F900F900F90DF91CF911F91FF90EF903A
:101B4000DF90CF90BF90AF908F907F906F9008956F
:101B5000CF93DF93EB0191E09093F5068093170705
:101B60001092F6061092180761E086EB97E0C2DA51
:101B70006D2F86EB97E0BEDA6C2F86EB97E0BADA32
:101B8000DF91CF911DC30F931F93CF93DF93EC0190
:101B9000C9D48C016BE872E0CE01C4D4800F911FD0
:101BA000DF91CF911F910F910895362F90E0FC01A6
:101BB000EF5CF94F4491FC01EF50F94F2491FC0187
:101BC000E555F94F9491992309F46CC0442309F425
:101BD00055C050E0FA013197E231F10508F04EC0EE
:101BE0008827E757FF4F8F4F0C949C2080918000EF
:101BF0008F7707C0809180008F7D03C08091800027
:101C0000877F809380003AC084B58F7702C084B507
:101C10008F7D84BD33C08091B0008F7703C08091E9
:101C2000B0008F7D8093B00029C0809190008F77A5
:101C300007C0809190008F7D03C080919000877FC6
:101C4000809390001BC08091A0008F7707C0809187
:101C5000A0008F7D03C08091A000877F8093A000AB
:101C60000DC0809120018F7707C0809120018F7D6A
:101C700003C080912001877F80932001E92FF0E04D
:101C8000EE0FFF1FE958F94FA591B4919FB7F89453
:101C9000311104C08C912095282302C0EC912E2B89
:101CA0002C939FBF08951F93CF93DF93EC01162FC2
:101CB00060E08F897ADF80E008DC812F06DC61E05C
:101CC0008F89DF91CF911F9170CF1F93CF93DF93B7
:101CD000EC01162F60E08F8968DF80E8F6DB812F4A
:101CE000F4DB61E08F89DF91CF911F915ECFEF929E
:101CF000FF920F931F93CF93DF93EC017B018A0137
:101D00006AE2E3DF6E2DCE01CEDF6BE2CE01DDDFD6
:101D10006F2DCE01C8DF6CE2CE01D7DF602FCE0180
:101D2000C2DF6DE2CE01D1DF612FCE01DF91CF9115
:101D30001F910F91FF90EF90B6CFE7ECF7E0448151
:101D400055814D5D5F4F55834483628173818081EE
:101D50009181CDCF1F93CF93DF93EC01142FB5DF8B
:101D6000612FCE01DF91CF911F919DCF1F93CF9314
:101D7000DF93EC0160E08F8918DF80E4A6DB80E070
:101D8000A4DB182F61E08F8910DF812FDF91CF91C5
:101D90001F9108950F931F93CF93DF93EC018B0155
:101DA00063E693DF612F669566956695CE017BDFCE
:101DB00064E6CE018ADFB801607E777085E07695B3
:101DC00067958A95E1F7CE016EDF65E6CE017DDF8E
:101DD000602F6F71CE0167DF62E2CE0176DFCE0148
:101DE000C5DF682F6064CE01DF91CF911F910F9105
:101DF0005ACF0F931F93CF93DF938C01C7ECD7E09B
:101E00006FEF7FEF88819981C5DF40E050E0B80136
:101E10008881998110DBDF91CF911F910F918DCF38
:101E2000EF92FF920F931F93CF93DF93EC0180917A
:101E3000C7079091C8074091CB075091CC0760919C
:101E4000C9077091CA07DC01ED91FC910288F38902
:101E5000E02D24E0C032D20761F430EEE32E37E00B
:101E6000F32E0EE110E022E330E0199560E070E01F
:101E700018C0B4E0CD31DB0759F4E12C28EFF22E85
:101E80000EE110E022E330E019956FEF7FEF09C01B
:101E9000E12CF12C0EE110E022E330E0199560EE28
:101EA0007FEF8091C7079091C80774DF40E050E052
:101EB000BE018091C7079091C807BDDADF91CF912D
:101EC0001F910F91FF90EF9038CF8F929F92AF921A
:101ED000BF92EF92FF920F931F93CF93DF93CDB7F3
:101EE000DEB764970FB6F894DEBF0FBECDBF4B01CF
:101EF0005C018091C7079091C8074091CB07509132
:101F0000CC076091C9077091CA07DC01ED91FC9183
:101F10000288F389E02DE12CF12C0EE110E022E89B
:101F200030E0199560EE7FEF8091C7079091C80768
:101F300031DFBFEF8B169B06A104B10421F483E1CE
:101F400094E06EDF22C08E010F5F1F4F84E1F80125
:101F500011928A95E9F7BF92AF929F928F9287E193
:101F600094E09F938F931F930F930E94C42240E0AD
:101F700050E0B8018091C7079091C8075CDADDDEB8
:101F80000FB6F894DEBF0FBECDBF64960FB6F894BF
:101F9000DEBF0FBECDBFDF91CF911F910F91FF909C
:101FA000EF90BF90AF909F908F9008957F928F9207
:101FB0009F92AF92BF92CF92DF92EF92FF920F93D8
:101FC0001F93CF93DF93EC01762E872E942EA52EB0
:101FD000B22ED32E61E979DE672DCE0164DE62E98F
:101FE000CE0173DE682DCE015EDE63E9CE016DDECB
:101FF000692DCE0158DE64E9CE0167DE6A2DCE017F
:1020000052DE65E9CE0161DE6B2DCE014CDE66E964
:10201000CE015BDE6D2DCE0146DE67E9CE0155DED9
:10202000602FCE0140DE68E9CE014FDE612FCE0188
:102030003ADE63E6CE0149DE6F2D669566956695BC
:10204000CE0131DE64E6CE0140DEB701607E7770FE
:1020500085E0769567958A95E1F7CE0124DE65E601
:10206000CE0133DE6E2D6F71CE011DDE60E9CE0133
:102070002CDECC2011F060EB01C060E9CE0113DE54
:1020800060E9CE0122DECE0171DE87FDF9CFDF915E
:10209000CF911F910F91FF90EF90DF90CF90BF9065
:1020A000AF909F908F907F9008958F929F92AF9264
:1020B000BF92CF92DF92EF92FF926B017C010CDC1A
:1020C0004B015C01C114D104E104F104E9F004DC2A
:1020D000DC01CB0188199909AA09BB09883E934004
:1020E000A105B10578F321E0C21AD108E108F10891
:1020F00088EE880E83E0981EA11CB11CC114D10487
:10210000E104F10421F7DECFFF90EF90DF90CF9054
:10211000BF90AF909F908F9008952FB7F8946091E3
:102120009E0670919F068091A0069091A1062FBFF8
:102130000895FF920F931F93CF93DF93182FF62EDE
:10214000C72FD42F60E08091DD072FDD83E0BDD95C
:10215000812FBBD90F2D1C2FC0E0CD1749F0C830FF
:1021600039F080E0B2D9F80181938F01CF5FF5CFCC
:1021700061E08091DD07DF91CF911F910F91FF907A
:1021800014CD90E0FC01EF50F94F2491FC01E5558E
:10219000F94F8491882399F090E0880F991FFC01F2
:1021A000EF56F94FA591B491FC01E958F94F85918B
:1021B00094918FB7F894EC91E22BEC938FBF089534
:1021C00030911807313208F04BC08091F40681112C
:1021D000FCCF9091170722E02093F40621E0209392
:1021E000F3062FEF2093F2061092F1063093F006DB
:1021F000E7EFF6E0A0EDB6E020E0321721F04191E4
:102200004D932F5FFACF1092CF062091CF06990FF2
:10221000922B9093CF069091CE06913061F410925C
:10222000CE069091CF069093BB009091BC0093FD99
:10223000F8CF95EC01C095EE9093BC009091F40618
:102240009230E1F39091F2069F3F79F08091F2068F
:10225000803241F08091F206803331F084E005C095
:1022600081E003C082E001C083E01092F606109284
:1022700018071092F50608959091F4069111FCCF7D
:1022800091E09093F4069093F3062FEF2093F206DB
:102290001092F106260F2093F0069093CF069091AE
:1022A000CF06880F892B8093CF068091CE06813090
:1022B00061F41092CE068091CF068093BB0080918E
:1022C000BC0083FDF8CF85EC01C085EE8093BC0097
:1022D0008091F4068130E1F38091F106861710F4C5
:1022E0006091F106A0EDB6E0EEEAF6E080E0861738
:1022F00021F09D9191938F5FFACF08951F93CF9313
:10230000DF93182FCDECD7E060E088894EDC83E0C6
:10231000DCD8812FDAD880E0D8D8182F61E08889FE
:1023200044DC812FDF91CF911F9108950F931F936C
:10233000CF93DF9300D01F92CDB7DEB7182F109246
:10234000CD071092CE071092CF071092D0071092AF
:10235000D10744E0BE016F5F7F4FEBDE2A813981F8
:10236000822F90E065E0959587956A95E1F748E0C2
:10237000349F800D911D1124092E000CAA0BBB0B5C
:102380008093CE079093CF07A093D007B093D10747
:1023900023FF29C032E0880F991FAA1FBB1F3A955F
:1023A000D1F72370820F911DA11DB11DBA2FA92F46
:1023B000982F88272B81820F911DA11DB11DBA2F47
:1023C000A92F982F88272C81820F911DA11DB11D47
:1023D0008093CE079093CF07A093D007B093D107F7
:1023E00081E08093CD078FEF810F88DF082F84E095
:1023F000810F84DF03FF04C091E09093DB0702C0EC
:102400001092DB07482F4F704093D20763ED77E0BF
:1024100085E0810F8EDE0F900F900F900F90DF916F
:10242000CF911F910F910895FF920F931F93CF9318
:10243000DF93F82E062F142FCDECD7E060E08889CB
:10244000B4DB85E042D88F2D40D8802F3ED8812F35
:102450003CD861E08889DF91CF911F910F91FF9067
:10246000A4CB1F93CF93DF93CDECD7E060E08889B6
:102470009CDB80EA2AD880E028D8182F61E0888980
:1024800094DB812FDF91CF911F910895A62F462FC6
:1024900050E0FA01E80FF11DEA55F94F20E030E075
:1024A00060E070E0CB01415051092A1778F4B291F5
:1024B0006B0F711D811D911D2417350724F4982F72
:1024C000872F762F66272F5F3F4FEFCF08950F930B
:1024D0001F93CF93DF93082F162FCDECD7E060E04A
:1024E000888963DB82E00E94650A802F0E94650A6A
:1024F000812F0E94650A61E08889DF91CF911F9149
:102500000F9153CBCF93C82F482F60EE8FE08CDF15
:102510008FE0F4DE982F907E81E09C1301C080E074
:10252000CF9108956115710551F0FB0101900020D4
:10253000E9F73197AF01461B570B0C94D00380E0AD
:1025400090E00895BC0189E197E0ECCFFF920F93F2
:102550001F93CF93DF93C82FF62E072F142F60E021
:102560008091DD0722DB82E00E94650A8C2F0E94A9
:10257000650ACF2DD02FCE01810F911D8C01C01780
:10258000D10721F089910E94650AF9CF61E080911D
:10259000DD07DF91CF911F910F91FF9006CB0F9335
:1025A0001F93CF93DF9300D01F92CDB7DEB761307A
:1025B000B9F42C833B838A0122273327602F6C7167
:1025C000902F937048E0649F900D112498609A8337
:1025D000980175E0369527957A95E1F729830DC026
:1025E000B90193E0769567959A95E1F7698322950D
:1025F000220F207E2A831C821B8244E0BE016F5F73
:102600007F4FA4DF0F900F900F900F90DF91CF912D
:102610001F910F9108951F920F920FB60F921124E0
:102620002F933F938F939F93AF93BF9380919E0679
:1026300090919F06A091A006B091A1063091ED0760
:1026400023E0230F2D3720F40196A11DB11D05C0F5
:1026500026E8230F0296A11DB11D2093ED0780935C
:102660009E0690939F06A093A006B093A10680912A
:10267000A2069091A306A091A406B091A50601968A
:10268000A11DB11D8093A2069093A306A093A4065A
:10269000B093A506BF91AF919F918F913F912F91DC
:1026A0000F900FBE0F901F901895CF93DF93CDB76B
:1026B000DEB7AA970FB6F894DEBF0FBECDBF7894F1
:1026C00084B5826084BD84B5816084BD85B5826037
:1026D00085BD85B5816085BD80916E0081608093E8
:1026E0006E00109281008091810082608093810051
:1026F0008091810081608093810080918000816061
:10270000809380008091B10084608093B1008091BB
:10271000B00081608093B0008091910082608093CE
:102720009100809191008160809391008091900050
:102730008160809390008091A10082608093A100CD
:102740008091A10081608093A1008091A0008160B0
:102750008093A0008091210182608093210180916B
:10276000210181608093210180912001816080930B
:10277000200180917A00846080937A0080917A00B1
:10278000826080937A0080917A00816080937A00E1
:1027900080917A00806880937A001092C10089E36A
:1027A000F0DC61E089E301DA88E0EBDC61E088E0FD
:1027B000FCD9E0912907F0912A0782E08083E0911B
:1027C0002507F09126071082E0912707F09128074E
:1027D00080E1808310923107E0912D07F0912E0760
:1027E00086E08083E0912B07F0912C078081806147
:1027F0008083E0912B07F0912C0780818860808393
:10280000E0912B07F0912C07808180688083E09114
:102810002B07F0912C0780818F7D808369E472E023
:1028200089E197E0B0D90E94C20960E08091DD079C
:10283000BCD980EC0E94650A61E08091DD07B5D9C2
:102840006AE070E080E090E030DC80E85BDE8823C6
:1028500019F086E592E035C080E792E073DE60E033
:102860008AE235DE60ED89E232DE62E888E22FDE60
:102870008EE892E067DE10E360E0812F28DE60E002
:1028800080E1810F24DE60E080E2810F20DE1F5FA7
:102890001E3391F760E080E61ADE60E080E717DE25
:1028A00063E08BE214DE44E064E680E6BDDD40E0F8
:1028B00060E680E7B9DD80E025DE882321F083EA49
:1028C00092E040DEB0CF8EEB92E03CDE6CED72E049
:1028D00089E197E058D94AE050E060E070E080E09C
:1028E00073D84FE050E060E070E081E06DD848E0E0
:1028F00050E060E070E080E014D84AE050E060E032
:1029000070E081E00ED843E050E060E070E082E0EB
:1029100008D844E050E060E070E083E002D84FE087
:1029200050E060E070E084E00E94910C4FE050E0E5
:1029300060E070E085E00E94910C0091C707109163
:10294000C80781E090E0D8015F969C938E935E97D4
:1029500080E293E05A969C938E93599780EE91E093
:102960005C969C938E935B9757968C910ADC61E002
:10297000F80187891AD9D80158968C9102DC60E059
:10298000F801808D12D960E0D80158968C910DD94C
:1029900064E670E080E090E088DB61E0F801808D23
:1029A00004D964E670E080E090E07FDB0E94C20919
:1029B0008CB583608CBD8DB58E7F8DBD8CB5837FCE
:1029C0008CBD60E0C80181D9C801D0D9853709F034
:1029D00091C7D8015E968D919C915F97892B91F458
:1029E0004AE068E8C801B6D961E070E080E090E0B4
:1029F0005CDB42E069E8C801ADD961E070E080E0ED
:102A000090E053DBF801868D978D019791F44AE0B1
:102A100068E8C8019FD961E070E080E090E045DBA4
:102A200042E069E8C80196D961E070E080E090E09A
:102A30003CDB4CE060E1C8018DD9D8015E968D91F8
:102A40009C915F97009789F00197E9F4B7E19B2E7D
:102A500080E2882E92E0A92E2AE1D22E30E6C32E03
:102A600040E2B42E51E8752E0EC048E0942E53E09B
:102A7000852E6AE0A62E7AE0D72EE0E3CE2EF8E08F
:102A8000BF2EA2E87A2E472D64E0C80163D961E029
:102A900070E080E090E009DBF801418D528D23E089
:102AA000569547952A95E1F7415064E1C80152D9FE
:102AB00040E065E1C8014ED94D2D50E0425051092A
:102AC00033E0559547953A95E1F766E1C80142D95B
:102AD0004B2D469546954695415067E1C8013AD938
:102AE000C694C694C6944FEF4C0D68E1C80132D924
:102AF000D8015B964C91415069E1C8012BD9F8018E
:102B0000838D948D0197492F6AE1C80123D94FEF36
:102B1000480D6BE1C8011ED940E06CE1C8011AD92B
:102B20004FEF490D6DE1C80115D940E06EE1C801D4
:102B300011D94FEF4A0D6FE1C8010CD940E060E3B5
:102B4000C80108D940E061E3C80104D9D801599609
:102B50004C91415064E3C801FDD8F801818D928DFC
:102B60000197492F65E3C801F5D840E062E3C80149
:102B7000F1D840E063E3C801EDD8D8015B964C91F1
:102B8000415066E3C801E6D8F801838D948D019722
:102B9000492F67E3C801DED840E86EE8C801DAD8FB
:102BA00064EF71E080E090E080DA8CB58C7F8CBDC2
:102BB0008DB58E7F8DBD40E861E08091C707909113
:102BC000C807C8D841E067EC8091C7079091C80753
:102BD000C1D84AE86AE88091C7079091C807BAD877
:102BE0004FEF6BE88091C7079091C807B3D88091E9
:102BF000C7079091C807DC01ED91FC910488F58925
:102C0000E02D60EE77E0199564E670E080E090E0FA
:102C10004CDA8091C7079091C807DC01ED91FC91D7
:102C20000488F589E02D6FEF77E0199564E670E090
:102C300080E090E03ADA8091C7079091C807DC0104
:102C4000ED91FC910488F589E02D6FE170E0199514
:102C500064E670E080E090E028DA8091C707909108
:102C6000C807DC01ED91FC910488F589E02D60E056
:102C700078EF199564E670E080E090E016DA8091D4
:102C8000C7079091C807DC01ED91FC910488F58994
:102C9000E02D60E078EF199564E670E080E090E068
:102CA00004DA8091C7079091C807DC01ED91FC918F
:102CB0000488F589E02D6FE178EF199564E670E0FE
:102CC00080E090E0F2D98091C7079091C807DC01BD
:102CD000ED91FC910488F589E02D60EE7FEF199568
:102CE00064E670E080E090E0E0D98091C7079091C1
:102CF000C807DC01ED91FC910488F589E02D60E0C6
:102D000070E019950091C7071091C80760E4C801E9
:102D10000E94650EC8012AD8682F6F77C8010E94EB
:102D2000530E8091C7079091C807DC01ED91FC918B
:102D30000488F589E02D60E070E019958091C7075F
:102D40009091C807DC01ED91FC910488F589E02D94
:102D500060E070E019950091C7071091C80762E222
:102D6000C8010E94650EC80101D8807F682F656088
:102D7000C8010E94530EDD24D394F801D58E009132
:102D8000C7071091C80760E4C8010E94650EC8011A
:102D90000E94B60E682F6068C8010E94530E61E25F
:102DA000C8010E94650EC8010E94B60E682F6F759B
:102DB000C8010E94530E63EE72E089E197E00E9421
:102DC000C30D1092CA071092C9071092CC07109237
:102DD000CB0740E050E060E070E08091C707909141
:102DE000C8070E94770E8DEE92E003D888EF92E03C
:102DF00000D883E093E00E94F90E8FE093E00E94F8
:102E0000F90E8BE193E00E94F90E86E293E00E94B6
:102E1000F90E81E393E00E94F90E8BE393E00E94A8
:102E2000F90E85E493E00E94F90E8EE493E00E948F
:102E3000F90E8AE593E00E94F90E82E693E00E9483
:102E4000F90E8EE693E00E94F90E80E991E09093EE
:102E5000CA078093C9071092CC071092CB0740E0B5
:102E600050E060E971E08091C7079091C8070E9427
:102E7000770E86E793E00E94F90E86E893E00E94C1
:102E8000F90E86E993E00E94F90E85EA93E00E942C
:102E9000F90E84EB93E00E94F90E83EC93E00E941C
:102EA000F90E82ED93E00E94F90E8FED93E00E94FF
:102EB000F90E8FEE93E00E94F90E88EF93E00E94E6
:102EC000F90E1092DB041092DA041092F6061092BA
:102ED00018071092F406D092F3061092CE0661E025
:102EE00084E10E94D50D61E085E10E94D50D8091BD
:102EF000B9008E7F8093B9008091B9008D7F809357
:102F0000B90088E48093B80085E48093BC0080E237
:102F100098E09093D9048093D80481E298E090934C
:102F2000D7048093D60461E074E089E197E00E94C1
:102F3000C30D0E940D0C809342068FB7F894ECED00
:102F4000F4E02BED35E02E173F0711F01192FBCF87
:102F50001298119810988FBF8FB7F8940A9A099A0F
:102F6000089A8FBF1092800089E08093810088E3E7
:102F700091E0909389008093880080916F00826037
:102F800080936F001092DB0500E010E0C8010E9402
:102F9000CE0B68EC70E080E090E087D80F5F1F4FA9
:102FA0000A30110599F780E090E00E94CE0B6CE0AA
:102FB00074E089E197E00E94C30D96E3C92E96E084
:102FC000D92E02E116E0A9D8D8016D937D938D9397
:102FD0009D938D01CA16DB06B1F7CC24CA94DC2C74
:102FE0001E01B5E12B0E311CFE013196FAA7E9A7AF
:102FF00094D80091E7051091E8052091E9053091FA
:10300000EA05DC01CB01801B910BA20BB30B813DC8
:103010009740A105B105E8F0D0920006C092FF05E7
:10302000D0920406C0920306D092EC05C092EB0544
:10303000D092F005C092EF05D092F405C092F3054E
:103040006CD86093E7057093E8058093E905909349
:10305000EA0563D80091E3051091E4052091E505A8
:103060003091E605DC01CB01801B910BA20BB30B69
:10307000813D9740A105B105E8F0D0920206C092CB
:103080000106D0920606C0920506D092EE05C092C7
:10309000ED05D092F205C092F105D092F605C092EE
:1030A000F5053BD86093E3057093E4058093E5054F
:1030B0009093E60532D80091F7051091F80520911C
:1030C000F9053091FA05DC01CB01801B910BA20BB5
:1030D000B30B813D9740A105B10588F0D092080659
:1030E000C0920706D0920E06C0920D0616D86093C5
:1030F000F7057093F8058093F9059093FA050DD8BC
:103100000091DD051091DE052091DF053091E0058D
:10311000DC01CB01801B910BA20BB30B8536910513
:10312000A105B10508F4AEC08091DC0581110FC086
:103130008091DE0711E01093F50680931707109237
:10314000F606109218073CD81093DC0591C064E095
:103150008091DE0791D81092DB048093DA0481110C
:1031600002C02ED863C086EB97E00E9432085C0153
:1031700086EB97E00E943208182F86EB97E00E94BA
:1031800032084C0186EB97E00E9432083C0118D8C7
:10319000C501992706E0959587950A95E1F7892B52
:1031A00009F044C0B5016F737727762F6627610F4A
:1031B000711D80E090E0B4D520E03CEF4FE756E48D
:1031C00005D720E030E048EC52E4E7D56093E30710
:1031D0007093E4078093E5079093E6079924A6E0AF
:1031E000880C991CAA95E1F7B30177277595679527
:1031F00075956795680D791D80E090E091D520E088
:103200003CEF4FE756E4E2D620E030E045E253E4FD
:10321000C4D520E030E040E252E473D66093DF078B
:103220007093E0078093E1079093E20720E030E09D
:1032300040E05FE36091E3077091E4078091E50768
:103240009091E6075FD62AD76093440620E030E0ED
:1032500040E05FE36091DF077091E0078091E10754
:103260009091E2074FD61AD7609345061092DC057D
:103270000E948D106093DD057093DE058093DF055D
:103280009093E00543EC50E45093C6074093C50784
:1032900063EC70E48091C2070E94A80D65E070E0C5
:1032A00080E090E00E9455108091C2070E94F109D1
:1032B0008C010090C40702C0169507950A94E2F7A6
:1032C000B80180E090E02CD520E030E040E058E309
:1032D00064D52AE939E949E153E45FD520E030E0DB
:1032E00048EC51E40ED620E038E747ED55E455D5DB
:1032F00020E030E04AE754E469D6D0D69B0120555F
:1033000031092F30314028F47093E2056093E105D4
:1033100004C0D092E205C092E105109337060093F5
:1033200036068091E1059091E2059093FC0580932B
:10333000FB050E940D0C809343060E940D0C90E04B
:103340009093FE058093FD058091440690E0909354
:103350000A06809309068091450690E090930C063A
:1033600080930B060E948D1000915606109157060F
:103370002091580630915906DC01CB01801B910B3E
:10338000A20BB30B893E9340A105B10508F45AC1C5
:1033900088EC90E09093CA078093C9071092CC07FD
:1033A0001092CB0740E050E068EC70E08091C707D6
:1033B0009091C8070E94770EEBEFAE2EE5E0BE2E8F
:1033C0000FE016E0D5016D917D915D0180E090E008
:1033D0000E94650F0A151B05A9F785E892E09093F6
:1033E000CA078093C9071092CC071092CB0740E020
:1033F00050E065E872E08091C7079091C8070E948D
:10340000770E7BEE472E75E0572E612C712CB2E0C3
:103410006B1671040CF47FC0F20180809180A12CA6
:10342000B12C8091C7079091C8074091CB0750916C
:10343000CC076091C9077091CA07DC01ED91FC913E
:103440000288F389E02DE12CF12C0EE110E022E856
:1034500030E0199560EE7FEF8091C7079091C80723
:103460000E94CA0EBFEF8B169B06A104B10429F47B
:1034700083E194E00E94100F55C0F10124E1119204
:103480002A95E9F7A9A5BAA5E4E11D92EA95E9F71D
:10349000C501B4012AE030E040E050E02BD6162F01
:1034A000072FB82EA92E5F934F933F932F9327E1B9
:1034B00034E03F932F933F922F920E94C422AF9209
:1034C000BF920F931F9387E194E09F938F93E1E066
:1034D000F0E0EC0FFD1FFF93EF930E94C4226BE11D
:1034E00074E0C1010E94B222BE016F5F7F4FC10133
:1034F0000E94B22240E050E0B1018091C707909154
:10350000C8070E941B0A0E949D0E0FB6F894DEBFEA
:103510000FBECDBF07C0D2016D917C9180E090E0DD
:103520000E94650FBFEF6B1A7B0AE2E04E0E511C42
:10353000F6E06F16710409F06ACF88EC90E0909382
:10354000CA078093C9078EE591E09093CC078093DA
:10355000CB074EE551E068EC70E08091C707909191
:10356000C8070E94770E06E116E062E2A62E66E02A
:10357000B62E0E948D10D8014D905D906D907D907B
:103580008D01DC01CB0184199509A609B709893B96
:103590009B40A105B10518F08DE194E002C080E2E6
:1035A00094E00E94100FA016B10619F785E892E08A
:1035B0009093CA078093C90782ED90E09093CC075F
:1035C0008093CB0742ED50E065E872E08091C70739
:1035D0009091C8070E94770E52E1A52E56E0B52EB5
:1035E00004E010E005301105D9F00E948D10D501DE
:1035F00050964D905D906D907C905397DC01CB017F
:1036000084199509A609B709893B9B40A105B10515
:1036100018F08DE194E002C080E294E00E94100F67
:103620000F5F1F4FF4E0AF0EB11C09301105D1F64A
:103630000E948D106093560670935706809358062B
:10364000909359060E948D100091520610915306D6
:103650002091540630915506DC01CB01801B910B63
:10366000A20BB30B4A97A105B10550F00E948D1033
:1036700060935206709353068093540690935506B8
:103680000E943112837009F449C00E94311280FFF8
:1036900038C181E60E94961140E061E08CE20E9410
:1036A00014128091D207809338064091CE07509132
:1036B000CF076091D0077091D1074093390650939E
:1036C0003A0660933B0670933C06A3EDB7E0E6EA4A
:1036D000F6E020E030E090E0281739070CF419C13B
:1036E0008091CE079091CF07A091D007B091D107DC
:1036F000FC013397ED30F10508F414C11092CE07A8
:103700001092CF071092D0071092D1071092D207D3
:103710001092CD071092DB071092DC070E948D10EB
:1037200000914E0610914F0620915006309151069F
:10373000DC01CB01801B910BA20BB30BC397A1053E
:10374000B10580F180913606909137068093A606E8
:103750009093A7061092CD0722E030E040E050E0C1
:103760002093CE073093CF074093D0075093D107D3
:1037700082E08093D207E6EAF6E0A3EDB7E08EEAB6
:1037800096E021912D938E179F07D9F70E941B0D6C
:103790000E948D1060934E0670934F0680935006E2
:1037A000909351060E948D1000914A0610914B068D
:1037B00020914C0630914D06DC01CB01801B910B12
:1037C000A20BB30B853F9140A105B105C8F183E081
:1037D00090E0A0E0B0E08093390690933A06A09381
:1037E0003B06B0933C0681E08093380695E09093C9
:1037F000A6061092CD0723E030E040E050E0209391
:10380000CE073093CF074093D0075093D1078093D2
:10381000D207E6EAF6E0A3EDB7E08EEA96E0219162
:103820002D938E179F07D9F70E941B0D0E948D10B4
:1038300060934A0670934B0680934C0690934D0616
:103840000E948D100091460610914706209148066F
:1038500030914906DC01CB01801B910BA20BB30B0D
:10386000893E9340A105B10508F441C08091450609
:103870008093A606209144062093A7063091430624
:103880003093A8068091420690E0831B91090B9724
:103890000CF027C1263508F024C11092A906109219
:1038A000CD0787E090E0A0E0B0E08093CE07909352
:1038B000CF07A093D007B093D10784E08093D207BD
:1038C000E6EAF6E0A3EDB7E08EEA96E021912D93CB
:1038D0008E179F07D9F70E941B0D0E948D106093D1
:1038E00046067093470680934806909349060E94C7
:1038F000CF047ECB64E274E089E197E00E94C30DBF
:10390000FFCF81FFEBC081E70E94961140E062E0AB
:10391000C5CE2830310509F4E3CE4D9141932F5F98
:103920003F4FDACE8827EE58FF4F8F4F05C461E036
:1039300080E00E9446124B015C010E948D109401B0
:10394000220F331F220F331FF901EE5EF94F608300
:10395000718382839383D2CE61E080E00E9446121D
:10396000062F60930F0661E081E00E944612162F39
:103970006093100661E082E00E9446126093110697
:103980000093F3041093F2046093F404B7CE61E063
:1039900080E00E94461270930E0660930D0693C05D
:1039A00062E080E00E9446127093F0056093EF059C
:1039B00062E082E00E9446127093F4056093F30582
:1039C00018C061E084E00E94461270930006609384
:1039D000FF0561E083E00E94461270930406609345
:1039E000030661E082E00E9446127093EC0560934A
:1039F000EB050E948D106093E7057093E8058093B6
:103A0000E9059093EA057ACE62E080E00E944612D2
:103A10007093F2056093F10562E082E00E94461225
:103A20007093F6056093F50518C061E084E00E948C
:103A30004612709302066093010661E083E00E94E3
:103A40004612709306066093050661E082E00E94CC
:103A500046127093EE056093ED050E948D10609301
:103A6000E3057093E4058093E5059093E60546CE63
:103A700085E0A9A5BAA51D928A95E9F78E010F5F89
:103A80001F4FB12C61E08B2D0E944612F80161930B
:103A90008F01B394F5E0BF12F5CF99818A81891720
:103AA00008F4892F9B81981708F4982F8C81891727
:103AB00008F4892F9D81891708F4892F90E090934D
:103AC0000806809307060E948D106093F705709397
:103AD000F8058093F9059093FA0510CE10923806F8
:103AE000FFCD0E948D1000913E0610913F0620915F
:103AF000400630914106DC01CB01801B910BA20BEB
:103B0000B30B8D329140A105B105C8F010913D066F
:103B1000112319F081E090E002C088E090E00E945B
:103B2000CE0B81E0812780933D060E948D1060932B
:103B30003E0670933F06809340069093410681E0D5
:103B40008093A906ACCE8091E7079091E80794C3D3
:103B5000CF9310921C0710921B0788EE93E0A0E011
:103B6000B0E080931D0790931E07A0931F07B093AA
:103B700020078DE092E090931A078093190785EC57
:103B800090E0909326078093250784EC90E0909333
:103B900028078093270780EC90E090932A07809372
:103BA000290781EC90E090932C0780932B0782ECFF
:103BB00090E090932E0780932D0786EC90E09093F1
:103BC000300780932F07109232071092330710921C
:103BD0003407109235071092E8071092E707109209
:103BE000EA071092E9071092EC071092EB0761E0E8
:103BF00070E080E090E0C9D3009791F09093E807DF
:103C00008093E7071092EA071092E9072091EB07EB
:103C10003091EC07232B09F077C0FC01108274C0AF
:103C20008091E7079091E807009709F025D310925B
:103C3000E8071092E7071092EC071092EB0710923A
:103C4000EA071092E9071092B9071092B80788EEB8
:103C500093E0A0E0B0E08093BA079093BB07A093F5
:103C6000BC07B093BD078FE192E09093B7078093B4
:103C7000B607C8E0C093DD0788E00E94C11061E08C
:103C80008091DD070E94D50D80E290E05DD2FC01BD
:103C90001382128220E233E03583248380EE91E0A8
:103CA000978386833187208793878287158A158635
:103CB00014861786168681E0848B2FEF3FEF338BB7
:103CC000228B318B208B868B81E392E091838083E2
:103CD00089E3878B82E4808FF093C807E093C7075E
:103CE0001092CA071092C9071092CC071092CB0706
:103CF00088E48093C207C093C3071092C40787E289
:103D00008093DE07CF9108951092EC071092EB0795
:103D10006DE872E08091E7079091E8072ED493CF89
:103D2000E89409C097FB3EF4909580957095619555
:103D30007F4F8F4F9F4F9923A9F0F92F96E9BB270B
:103D40009395F695879577956795B795F111F8CF87
:103D5000FAF4BB0F11F460FF1BC06F5F7F4F8F4FF2
:103D60009F4F16C0882311F096E911C0772321F0E8
:103D70009EE8872F762F05C0662371F096E8862F80
:103D800070E060E02AF09A95660F771F881FDAF7D7
:103D9000880F9695879597F908950BD078C069D0CC
:103DA00028F06ED018F0952309F05AC05FC0112496
:103DB000A2C07ED0A0F3959FD1F3950F50E0551F80
:103DC000629FF001729FBB27F00DB11D639FAA2770
:103DD000F00DB11DAA1F649F6627B00DA11D661FBF
:103DE000829F2227B00DA11D621F739FB00DA11DE0
:103DF000621F839FA00D611D221F749F3327A00D9A
:103E0000611D231F849F600D211D822F762F6A2F35
:103E100011249F5750408AF0E1F088234AF0EE0FBA
:103E2000FF1FBB1F661F771F881F91505040A9F7C7
:103E30009E3F510570F014C05EC05F3FECF3983EAA
:103E4000DCF3869577956795B795F795E7959F5F2E
:103E5000C1F7FE2B880F911D9695879597F90895C8
:103E600097F99F6780E870E060E008959FEF80EC2D
:103E7000089500240A9416161706180609060895D0
:103E800000240A9412161306140605060895092E36
:103E90000394000C11F4882352F0BB0F40F4BF2BA5
:103EA00011F460FF04C06F5F7F4F8F4F9F4F0895E5
:103EB00057FD9058440F551F59F05F3F71F04795DB
:103EC000880F97FB991F61F09F3F79F087950895C0
:103ED000121613061406551FF2CF4695F1DF08C0DF
:103EE000161617061806991FF1CF869571056105FC
:103EF00008940895E894BB2766277727CB0197F9A4
:103F000008955058BB27AA270ED0C1CFB2DF30F09A
:103F1000B7DF20F031F49F3F11F41EF4A7CF0EF469
:103F2000E095E7FB9DCFE92FC3DF80F3BA17620767
:103F300073078407950718F071F49EF5DBCF0EF434
:103F4000E0950B2EBA2FA02D0B01B90190010C01A9
:103F5000CA01A0011124FF27591B99F0593F50F4C1
:103F6000503E68F11A16F040A22F232F342F442719
:103F7000585FF3CF469537952795A795F040539511
:103F8000C9F77EF41F16BA0B620B730B840BBAF0E1
:103F90009150A1F0FF0FBB1F661F771F881FC2F74C
:103FA0000EC0BA0F621F731F841F48F48795779560
:103FB0006795B795F7959E3F08F0B3CF9395880F17
:103FC00008F09927EE0F9795879508950CD05FCF4D
:103FD00057DF40F04EDF30F021F45F3F19F040CF63
:103FE000511189CF43CF64DF98F39923C9F3552347
:103FF000B1F3951B550BBB27AA27621773078407DC
:1040000038F09F5F5F4F220F331F441FAA1FA9F391
:1040100033D00E2E3AF0E0E830D091505040E69583
:10402000001CCAF729D0FE2F27D0660F771F881FE4
:10403000BB1F261737074807AB07B0E809F0BB0BD3
:10404000802DBF01FF2793585F4F2AF09E3F5105F7
:1040500068F006CF50CF5F3FECF3983EDCF38695D7
:1040600077956795B795F7959F5FC9F7880F911D6D
:104070009695879597F90895E1E0660F771F881F59
:10408000BB1F621773078407BA0720F0621B730B0C
:10409000840BBA0BEE1F88F7E095089511DF88F0C6
:1040A0009F5790F0B92F9927B751A0F0D1F0660F24
:1040B000771F881F991F1AF0BA95C9F712C0B1303F
:1040C00081F018DFB1E0089515CF672F782F88278A
:1040D000B85F39F0B93FCCF3869577956795B3957E
:1040E000D9F73EF490958095709561957F4F8F4FED
:1040F0009F4F0895A1E21A2EAA1BBB1BFD010DC004
:10410000AA1FBB1FEE1FFF1FA217B307E407F50787
:1041100020F0A21BB30BE40BF50B661F771F881F63
:10412000991F1A9469F760957095809590959B01F9
:10413000AC01BD01CF010895EE0FFF1F881F8BBF9B
:104140000790F691E02D19940F931F93CF93DF936F
:104150008230910510F482E090E0E091F007F09158
:10416000F10720E030E0A0E0B0E0309719F14081A5
:1041700051810281138148175907C8F084179507A8
:1041800069F4109731F012960C93129713961C93C2
:1041900027C00093F0071093F10722C021153105C5
:1041A00019F04217530718F49A01BD01EF01DF011E
:1041B000F801DBCF21153105F9F0281B390B24302C
:1041C000310580F48A819B816115710521F0FB0125
:1041D0009383828304C09093F1078093F007FE01DC
:1041E000329644C0FE01E20FF31F81939193225057
:1041F0003109398328833AC02091EE073091EF07C7
:10420000232B41F420910202309103023093EF07F7
:104210002093EE0720910002309101022115310513
:1042200041F42DB73EB74091040250910502241B82
:10423000350BE091EE07F091EF07E217F307A0F4DA
:104240002E1B3F0B2817390778F0AC014E5F5F4FEC
:104250002417350748F04E0F5F1F5093EF07409328
:10426000EE078193919302C0E0E0F0E0CF01DF918F
:10427000CF911F910F910895CF93DF93009709F489
:1042800081C0FC01329713821282A091F007B09195
:10429000F107109781F420813181820F931F2091C3
:1042A000EE073091EF072817390751F5F093EF0724
:1042B000E093EE0767C0ED0120E030E0CE17DF07A6
:1042C00040F44A815B819E0141155105F1F0EA01FC
:1042D000F5CFD383C28340815181840F951FC817C6
:1042E000D90759F488819981840F951F029691838B
:1042F00080838A819B81938382832115310529F4F0
:10430000F093F107E093F0073DC0E901FB83EA83F6
:1043100049915991C40FD51FEC17FD0761F48081B5
:104320009181840F951F0296E90199838883828188
:1043300093819B838A83E0E0F0E012968D919C91BB
:104340001397009719F0FD01DC01F7CF8D919C9137
:1043500011979D012E5F3F4F820F931F2091EE0713
:104360003091EF072817390769F4309729F4109234
:10437000F1071092F00702C013821282B093EF0788
:10438000A093EE07DF91CF9108956F927F928F9265
:104390009F92AF92BF92CF92DF92EF92FF920F93D4
:1043A0001F93CF93DF93009781F4CB01DF91CF91DF
:1043B0001F910F91FF90EF90DF90CF90BF90AF9043
:1043C0009F908F907F906F90BFCEFC01E60FF71FFC
:1043D0009C0122503109E217F30708F4A5C0EC0153
:1043E000D9010D911C91119706171707A8F00530F8
:1043F000110508F497C0C80104978617970708F4B9
:1044000091C002501109061B170B019311936D9374
:104410007C93CF0131DF86C05B01A01AB10A4C0149
:10442000800E911EA091F007B091F107612C712CC4
:10443000E12CF12C109709F446C08D919C911197B5
:10444000A815B905B1F56C0142E0C40ED11CCA141F
:10445000DB0478F14C018A189B08640142E0C40E29
:10446000D11C1296BC9012971396AC91B5E0CB1666
:10447000D10440F0B282A38391828082D9016D93EE
:104480007C9309C00E5F1F4F800F911FF90191832C
:104490008083EB2DFA2FE114F10431F0D70113964C
:1044A000FC93EE9312973EC0F093F107E093F00770
:1044B00039C06816790608F43C017D0112960D900A
:1044C000BC91A02DB7CF8091EE079091EF07881691
:1044D0009906E1F466167706C8F48091000290917F
:1044E0000102009741F48DB79EB7409104025091AC
:1044F0000502841B950BE817F907B0F4F093EF075A
:10450000E093EE07F901718360830CC0CB011CDEE0
:104510007C01009749F0A801BE011BD0CE01ACDEA2
:10452000C70104C0CE0102C080E090E0DF91CF91CE
:104530001F910F91FF90EF90DF90CF90BF90AF90C1
:104540009F908F907F906F90089581E090E0F89415
:10455000F6C2FB01DC0102C001900D9241505040B7
:10456000D8F70895FB01DC010D900020E9F71197C1
:1045700001900D920020E1F70895FB01DC0101900C
:104580000D920020E1F708950F931F93CF93DF93CF
:10459000CDB7DEB72E970FB6F894DEBF0FBECDBFF6
:1045A0000E891F8986E08C831A8309838FEF9FE72A
:1045B0009E838D83AE01465E5F4F688D798DCE01FF
:1045C000019610D0EF81F885E00FF11F10822E9632
:1045D0000FB6F894DEBF0FBECDBFDF91CF911F9114
:1045E0000F9108952F923F924F925F926F927F9218
:1045F0008F929F92AF92BF92CF92DF92EF92FF92F3
:104600000F931F93CF93DF93CDB7DEB72B970FB6E2
:10461000F894DEBF0FBECDBF6C017B018A01FC01A7
:1046200017821682838181FFBFC1CE0101963C01B2
:10463000F6019381F70193FD859193FF81917F01AD
:10464000882309F4ADC1853239F493FD859193FF38
:1046500081917F01853221F4B60190E0D6D1E8CF77
:10466000912C212C312CFFE1F315D8F08B3279F00D
:1046700038F4803279F08332A1F4232D20611DC0FB
:104680008D3261F0803369F4232D216016C0832DB3
:104690008260382EE32DE4603E2E2AC0F32DF860B0
:1046A0001DC037FC2DC020ED280F2A3040F08E327F
:1046B000B9F436FC75C1232D2064322E19C036FEA4
:1046C00006C08AE0989E200D1124922E11C0EAE0C7
:1046D0002E9E200D1124222EF32DF0623F2E08C0B5
:1046E0008C3621F4832D8068382E02C0883641F440
:1046F000F70193FD859193FF81917F018111B3CFE4
:10470000982F9F7D9554933028F40C5F1F4F9FE3A3
:1047100099830DC0833631F0833771F0833509F00A
:1047200055C020C0F801808189830E5F1F4F882407
:104730008394912C530112C02801F2E04F0E511CBA
:10474000F801A080B18036FE03C0692D70E002C080
:104750006FEF7FEFC5014ED14C018201F32DFF7742
:104760003F2E15C0280122E0420E511CF801A08006
:10477000B18036FE03C0692D70E002C06FEF7FEF9D
:10478000C5012DD14C01F32DF0683F2E820133FC81
:1047900019C0822D90E088169906A0F4B60180E237
:1047A00090E033D12A94F5CFF50137FC859137FE9F
:1047B00081915F01B60190E028D121102A9421E077
:1047C000821A91088114910479F7E1C0843611F0BE
:1047D000893639F5F80137FE07C060817181828121
:1047E00093810C5F1F4F08C060817181072E000C00
:1047F000880B990B0E5F1F4FF32DFF763F2E97FF0F
:1048000009C090958095709561957F4F8F4F9F4F10
:10481000F0683F2E2AE030E0A30133D1882E8618BD
:1048200044C0853731F4232D2F7EB22E2AE030E0AC
:1048300025C0932D997FB92E8F36C1F018F4883595
:1048400079F0AEC0803719F0883721F0A9C0E92F80
:10485000E061BE2EB4FE0DC0FB2DF460BF2E09C07A
:1048600034FE0AC0292F2660B22E06C028E030E0B0
:1048700005C020E130E002C020E132E0F801B7FEDF
:1048800007C060817181828193810C5F1F4F06C0D8
:104890006081718180E090E00E5F1F4FA301F1D035
:1048A000882E8618FB2DFF773F2E36FE0DC0232D58
:1048B0002E7FA22E891458F434FE0BC032FC09C09E
:1048C000832D8E7EA82E05C0B82CA32C03C0B82C37
:1048D00001C0B92CA4FE0FC0FE01E80DF11D8081BE
:1048E000803321F49A2D997EA92E09C0A2FE06C01C
:1048F000B394B39404C08A2D867809F0B394A3FCD2
:1049000010C0A0FE06C0B21480F4280C922C9B1894
:104910000DC0B21458F4B60180E290E076D0B394A2
:10492000F8CFB21418F42B1802C0982C212CA4FE36
:104930000FC0B60180E390E068D0A2FE16C0A1FCD3
:1049400003C088E790E002C088E590E0B6010CC0A3
:104950008A2D867851F0A1FE02C08BE201C080E270
:10496000A7FC8DE2B60190E050D0891430F4B60176
:1049700080E390E04AD09A94F8CF8A94F301E80D4E
:10498000F11D8081B60190E040D08110F6CF222049
:1049900009F44ECEB60180E290E037D02A94F7CFEA
:1049A000F6018681978102C08FEF9FEF2B960FB69D
:1049B000F894DEBF0FBECDBFDF91CF911F910F9155
:1049C000FF90EF90DF90CF90BF90AF909F908F902F
:1049D0007F906F905F904F903F902F900895FC01D3
:1049E0000590615070400110D8F7809590958E0F1A
:1049F0009F1F0895FC016150704001900110D8F78D
:104A0000809590958E0F9F1F08950F931F93CF93BE
:104A1000DF93FB01238121FD03C08FEF9FEF2CC0AB
:104A200022FF16C0468157812481358142175307E2
:104A300044F4A081B1819D012F5F3F4F31832083DA
:104A40008C93268137812F5F3F4F3783268314C095
:104A50008B01EC01FB010084F185E02D1995892B78
:104A6000E1F6D80116968D919C91179701961796AD
:104A70009C938E931697CE01DF91CF911F910F914A
:104A80000895FA01AA27283051F1203181F1E894E4
:104A90006F936E7F6E5F7F4F8F4F9F4FAF4FB1E031
:104AA0003ED0B4E03CD0670F781F891F9A1FA11D2C
:104AB000680F791F8A1F911DA11D6A0F711D811D2D
:104AC000911DA11D20D009F468943F912AE0269FF2
:104AD00011243019305D3193DEF6CF010895462F51
:104AE0004770405D4193B3E00FD0C9F7F6CF462F32
:104AF0004F70405D4A3318F0495D31FD405241939B
:104B000002D0A9F7EACFB4E0A69597958795779557
:104B10006795BA95C9F700976105710508959B01DE
:104B2000AC010A2E06945795479537952795BA9567
:104B3000C9F7620F731F841F951FA01D089513E00E
:104B4000CDE9D3E000E005C0802FFE01F5DA219623
:104B5000011DCE39D10780E00807B1F7F894FFCFE7
:104B60000000F2078000304050000000006204D0D6
:104B700003FA03AE042B0409041D04000000007AAC
:104B8000084E08A908220846083208230800000039
:104B900000530A4B0AA908A8086C0AED08D907C5F2
:104BA00007DC08CA08AE08070548692C2049276DAC
:104BB000205354422100456E7465722073657474ED
:104BC000696E67206D6F64652066616C6C0D0A000C
:104BD000456E7465722073657474696E67206D6FBD
:104BE00064652073756363657373200D0A007365D4
:104BF000742072617465207375636365737321211A
:104C00000D0A00456E746572204E6F726D616C20E6
:104C10004D6F64652046616C6C21210D0A00456E64
:104C2000746572204E6F726D616C204D6F646520EB
:104C30005375636365737321210D0A0043414E2050
:104C40004F4B0053637265656E204F6B004578745F
:104C50002070726573733A00496E742070726573C8
:104C6000733A00504D42312070726573733A0050B0
:104C70004D42322070726573733A00504D423120BC
:104C800074656D703A00504D42322074656D703A13
:104C9000004350552074656D703A0048756D696425
:104CA0006974793A0053542074656D703A00444E2B
:104CB000412070726573733A2000534243204F4B7A
:104CC0003A005342432D43414E204F4B3A0050434C
:104CD00042204F4B3A00426174743120636170612D
:104CE000636974793A00426174743220636170615F
:104CF000636974793A004261747431206375727229
:104D0000656E743A00426174743220637572726524
:104D10006E743A00426174743120766F6C7461670E
:104D2000653A00426174743220766F6C7461676515
:104D30003A005468727573746572204F4B3A004D97
:104D4000616E6970756C61746F72204F4B3A0050E0
:104D50004D4231204F4B3A00504D4232204F4B3A9A
:104D60000053656E736F7273204F4B004C454420A7
:104D70004F4B004E2F4100256C75002E004E4F000A
:104D800059455300524138383735204E6F7420460C
:104D90006F756E642100426567696E20746F2073C1
:104DA00065742046696C74657221210D0A00456E98
:104DB000746572206E6F726D616C206D6F6465201A
:104DC00066616C6C0D0A5365742066696C7465725B
:104DD000206661696C21210D0A00736574204669A3
:104DE0006C746572207375636365737321210D0A9A
:104DF00000426567696E20746F20736574204D6191
:104E0000736B21210D0A00456E746572206E6F72FE
:104E10006D616C206D6F64652066616C6C0D0A00BD
:104E2000736574204D61736B207375636365737371
:064E300021210D0A000023
:00000001FF
